:02000000B02925
:10000800FF00030E8301B5000A08B4008A017008D6
:10001800A5007108A4007208A3007B08A2007C0850
:10002800A1007D08A0008B1C232806181D288B1012
:1000380023280130AA000030AB0091219E21250819
:10004800F0002408F1002308F2002208FB00210830
:10005800FC002008FD0034088A00350E8300FF0EDE
:040068007F0E0900FE
:10006C0083120313860101302605F1002708F200E4
:10007C000030F20500307206031D46280030710670
:10008C00031D612886148030F00080302F0670022A
:10009C00031D52282E08033C031C5D2800302B0640
:1000AC00031D5A2801302A0603195D285F280617FC
:1000BC0060288616792806168030F00080302F06CE
:1000CC007002031D6B282E08033C031C762800309D
:1000DC002B06031D732801302A060319762878286D
:0800EC008615792806150800AD
:1000F4008030831203132F06F00080307002031D3A
:10010400852800302E02031C9C282E0887000B3003
:10011400FB002630FC005D30FD00FD0B8F28FC0B3E
:100124008F28FB0B8F28000000000130AE02031C57
:10013400AF037A280130B2000030B300A60A0319D5
:04014400A70A0800FE
:10014800013083120313A8000030A900B201B301E3
:1001580086010330AE000030AF0080302F06F0007B
:1001680080307002031DBA2800302E02031CE628D6
:1001780008142E08870001302605F1002708F20030
:100188000030F20500307206031DCC2801307106DC
:10019800031DD12806160615D328861686140B309B
:1001A800FB002630FC005D30FD00FD0BD928FC0B60
:1001B800D928FB0BD928000000000130AE02031C2F
:0E01C800AF03B128A60A0319A70A36200800C3
:0E01D600831203132D088A002C0882000800F3
:1001E4000130831203132605F1002708F2000030C2
:1001F400F20500307206031D012900307106031D4B
:1002040008292330AE000030AF000C291530AE00B1
:100214000030AF002E08B0002F08B100860108148A
:1002240080302F06F00080307002031D1B2900303F
:100234002E020318262900302B06031D2329013022
:100244002A06031926297C2900302B06031D2C2994
:1002540001302A06031D5129AA01AB0108143208F2
:100264003304031948293008383CF0003108031CD2
:10027400013EF101F1027008B0007108B10070088C
:10028400AE007108AF00B201B3014C293008AE00D2
:100294003108AF0028082904031951297F290030A7
:1002A4002F06031D57291F302E060319622900301B
:1002B4002F06031D5F290F302E06031962296629B4
:1002C4000630AE02031CAF032E08870036200B3025
:1002D400FB002630FC005D30FD00FD0B6F29FC0B9C
:1002E4006F29FB0B6F29000000000130AE02031CD4
:0C02F400AF031229A60A0319A70A08008C
:0A0300000B16831603130117080003
:10030A00EB208A110A128000840AAC0A0319AD0A8A
:08031A00F003031D8529080012
:100322008B1894299D2983120313861A9B29061977
:0A0332009B299D297A20362008003F
:10033C00831203130810061CAD29061CA829861B62
:10034C00A829A3290618AB29AD29A420A1290800A6
:04035C008B170800F3
:1003600083120313A601A701A801A901AA01AB01E9
:1003700083168601870188010614861783120814E4
:10038000AE2180218312A801A901F220C229C72928
:02400E004A2F37
:00000001FF
